:1000000013C22BC2B7C229C228C290C226C225C2BF
:100010009FC223C222C221C220C21FC21EC27E3082
:100020006D79335B5F707F7B4B134E0D430B180A6A
:100030004D09B5083C08DA0787073F070107C906DD
:1000400097066A0641061B06F805D805B9059D0501
:100050008205690552053B0526051205FE04EC04E0
:10006000DA04C904B904A9049A048B047D046F045A
:100070006204550449043D04310426041B041004A1
:100080000604FC03F203E803DF03D603CC03C40336
:10009000BB03B303AA03A2039A0392038B03830354
:1000A0007C0375036E0367036003590353034C031A
:1000B00046033F03390333032D03270321031B03A7
:1000C000160310030B0305030003FB02F502F00205
:1000D000EB02E602E102DC02D702D202CE02C90242
:1000E000C402C002BB02B702B202AE02A902A5025C
:1000F000A1029D029802940290028C02880284025E
:1001000080027C027802750271026D02690265024A
:1001100062025E025B025702530250024C02490225
:10012000450242023F023B023802340231022E02F3
:100130002B022702240221021E021B0217021402B4
:1001400011020E020B02080205020202FF01FC016D
:10015000F901F601F301F001ED01EB01E801E50120
:10016000E201DF01DD01DA01D701D401D201CF01C3
:10017000CC01C901C701C401C101BF01BC01B90162
:10018000B701B401B201AF01AD01AA01A701A501F8
:10019000A201A0019D019B0198019601940191018A
:1001A0008F018C018A0187018501830180017E0115
:1001B0007B01790177017401720170016D016B019E
:1001C000690166016401620160015D015B01590121
:1001D00057015401520150014E014B0149014701A1
:1001E0004501430140013E013C013A01380135011E
:1001F000330131012F012D012B0129012601240199
:10020000220120011E011C011A011801160113010F
:1002100011010F010D010B01090107010501030186
:100220000101FF00FD00FB00F800F600F400F20001
:10023000F000EE00EC00EA00E800E600E400E20076
:10024000E000DE00DC00DA00D800D600D400D200E6
:10025000D000CE00CC00CA00C800C600C400C20056
:10026000C000BE00BC00BA00B800B600B400B200C6
:10027000B000AE00AC00AA00A800A600A400A20036
:10028000A0009E009C009A009800960094009200A6
:1002900090008E008C008A00880086008400820016
:1002A00080007E007C007A00780076007400720086
:1002B00070006E006C006A006800660064006200F6
:1002C00060005E005C005A00580056005400510067
:1002D0004F004D004B0049004700450043004100DE
:1002E0003F003D003B003900370034003200300051
:1002F0002E002C002A0028002600240021001F00C8
:100300001D001B00190017001500120010000E0040
:100310000C000A000700050003000100FFFFFDFFBD
:10032000FBFFF9FFF6FFF4FFF2FFF0FFEDFFEBFF3D
:10033000E9FFE6FFE4FFE2FFDFFFDDFFDBFFD8FFC1
:10034000D6FFD4FFD1FFCFFFCCFFCAFFC7FFC5FF49
:10035000C2FFC0FFBDFFBBFFB8FFB6FFB3FFB1FFD9
:10036000AEFFACFFA9FFA6FFA4FFA1FF9EFF9CFF6D
:1003700099FF96FF93FF91FF8EFF8BFF88FF85FF0C
:1003800083FF80FF7DFF7AFF77FF74FF71FF6EFFB1
:100390006BFF68FF65FF62FF5EFF5BFF58FF55FF65
:1003A00051FF4EFF4BFF47FF44FF41FF3DFF39FF29
:1003B00036FF32FF2FFF2BFF27FF23FF20FF1CFFFD
:1003C00018FF14FF10FF0BFF07FF03FFFFFEFAFEED
:1003D000F6FEF1FEEDFEE8FEE3FEDEFED9FED4FE03
:1003E000CFFEC9FEC4FEBEFEB9FEB3FEADFEA7FE43
:1003F000A0FE9AFE93FE8CFE85FE7EFE76FE6EFECD
:1004000066FE5DFE54FE4AFE40FE36FE2BFE1FFEDB
:1004100012FE04FEF5FDE5FDD3FDBFFDA8FD8DFD3B
:100420006DFD43FD06FD8FFC11241FBECFEDCDBF3A
:1004300010E0A0E6B0E0E6E6F7E002C005900D921D
:10044000A236B107D9F720E0A2E6B0E001C01D92C4
:10045000A636B207E1F7DCD084C1D2CD98E087FFA1
:1004600002C0C39A01C0C398C29A880FC298915023
:10047000B1F70895CF93C82FC498892FEFDF8C2F41
:10048000EDDFC49ACF9108958CE187BB88E188BBEA
:1004900081E09CE0EFDF80E099E0ECDF80E09FE02E
:1004A000E9DF83E09BE0E6DF8FE09AE0E3DF81E0D5
:1004B00091E0E0DF81E092E0DDDF81E093E0DADFF0
:1004C00081E094E0D7CFFF920F931F93CF93DF93F8
:1004D00008B3C82FD0E01AE0862F612F0FD1F82E75
:1004E000E92FF0E0E25EFF4FE491C2989E012F5F9A
:1004F0003F4F922F88278E2BBDDF8F2D612FFED08F
:10050000E92FF0E0E25EFF4FE4919C2F88278E2BCD
:10051000B1DF08BBDF91CF911F910F91FF9008953C
:10052000813011F4C29A0895C29808951F920F92D3
:100530000FB60F9211248F9380916500886080938D
:10054000650000008F910F900FBE0F901F901895BF
:100550001F920F920FB60F9211248F938091650016
:1005600082608093650000008F910F900FBE0F9006
:100570001F9018951F920F920FB60F9211248F9310
:100580008BB78F7D8BBF0000B19905C08091610052
:100590008F5F80936100B09905C0809161008150A8
:1005A00080936100809165008460809365008BB7C3
:1005B00080628BBF8F910F900FBE0F901F90189588
:1005C0009C0136952795F901EE0FFF1FE85DFF4F5F
:1005D00065917491AB01F901EE0FFF1FE65DFF4FCE
:1005E0002591349180FF0EC057FF02C04F5F5F4FCF
:1005F0005595479537FF02C02F5F3F4F359527959B
:10060000420F531FCA016AE070E084D0862F08951C
:1006100084E886B9339A38DF6091610083E053DF64
:1006200083E085BB8BB780628BBF85E083BF89B7D2
:10063000826089BF7894369AC3E0D1E480916500E6
:1006400081FF32C0809165008D7F8093650090911D
:10065000600091509093600040916200509163005F
:10066000992351F024B135B1CA01820F931F9093A1
:100670006300809362000FC0D0936000CA0126E03F
:10068000969587952A95E1F79BDF809364001092F9
:10069000630010926200209164009091610081E0FB
:1006A000291708F080E03CDF8091650082FF12C0CE
:1006B000809165008B7F809365006091610083E08D
:1006C00002DF209164009091610081E0291708F019
:1006D00080E026DF8091650083FF0CC0809165007B
:1006E000877F80936500C15029F46091640081E0A8
:1006F000EADEC3E03699A2CF369AA0CF991B79E003
:1007000004C0991F961708F0961B881F7A95C9F7A1
:100710008095089597FB072E16F4009406D077FD78
:1007200008D00BD007FC05D03EF4909581959F4FE3
:100730000895709561957F4F0895AA1BBB1B51E1E9
:1007400007C0AA1FBB1FA617B70710F0A61BB70B41
:10075000881F991F5A95A9F780959095BC01CD01E6
:060760000895F894FFCF9C
:0207660041232D
:00000001FF
